:020000040800F2
:1000000000000120F9020008490300084903000824
:1000100049030008490300084903000800000000E4
:10002000000000000000000000000000490300087C
:1000300049030008000000004903000849030008C4
:100040004903000849030008490300084903000860
:100050004903000849030008490300084903000850
:100060004903000849030008490300084903000840
:100070004903000849030008490300084903000830
:100080004903000849030008490300080000000074
:10009000000000000000000000000000490300080C
:1000A0004903000849030008490300084903000800
:1000B00049030008490300084903000849030008F0
:1000C00049030008490300084903000849030008E0
:1000D0004903000849030008490300080000000024
:1000E0004903000849030008490300080000000014
:1000F00000000000000000000000000049030008AC
:1001000000000000490300084903000849030008F3
:1001100000000000000000000000000000000000DF
:10012000490300084903000849030008490300087F
:10013000490300080000000000000000000000006B
:10014000000000000000000000000000490300085B
:10015000490300084903000849030008490300084F
:1001600049030008490300080000000000000000E7
:10017000000000000000000000000000000000007F
:10018000000000004903000800000000000000001B
:040190004903000817
:1001940010B5054C237833B9044B13B10448AFF3BD
:1001A40000800123237010BD000000200000000027
:1001B400BC07000808B5034B1BB103490348AFF360
:1001C400008008BD0000000004000020BC070008F7
:1001D40080B582B000AF0123FB7103230022032109
:1001E400422000F0B1F8002301220521422000F052
:1001F400ABF8002301220621422000F0A5F80023D9
:1002040001220721422000F09FF80022052142200C
:1002140000F0DEF900220621422000F0D9F9002284
:100224000721422000F0D4F90321422000F042FAD1
:100234000346002BF8D100233B6002E03B68013306
:100244003B603B684CF24F329342F7DD032142207E
:1002540000F030FA0346002BE6D100BF0321422010
:1002640000F028FA0346002BF8D000220521422092
:1002740000F0AEF900220621422000F0A9F9002284
:100284000721422000F0A4F9FB795B0103F020036D
:100294001A460521422000F09BF9FB795B0103F02B
:1002A40040031A460621422000F092F9FB795B01D3
:1002B40003F080031A460721422000F089F9FB79F4
:1002C4000133FB71FB79082BAED10023FB71ABE743
:1002D40080B400AF064BD3F88830054A43F470036A
:1002E400C2F8883000BFBD465DF8047B704700BF8C
:1002F40000ED00E0DFF834D00D480E490E4A00232B
:1003040002E0D458C4500433C4188C42F9D30B4AC5
:100314000B4C002301E013600432A242FBD3FFF72D
:10032400D7FF00F025FAFFF753FF704700000120C4
:100334000000002000000020DC070008000000206E
:100344001C000020FEE7000080B485B000AFB96057
:100354007A603B600346FB73FB7B412B03D0422B4B
:1003640000F0948028E1974B1B6B964A43F00103FD
:1003740013637B68032B3CD801A252F823F000BF1F
:1003840095030008AF030008C7030008DF03000853
:100394008D4B1B68BA685200032101FA02F2D24362
:1003A4001146894A0B40136023E0874B1B68BA68E7
:1003B4005200012101FA02F21146834A0B431360F1
:1003C40017E0814B1B68BA685200022101FA02F25D
:1003D40011467D4A0B4313600BE07B4B1B68BA68E4
:1003E4005200032101FA02F21146774A0B431360CB
:1003F40000BF3B68042B00F2DC8001A252F823F01A
:100404001904000831040008450400085F040008CA
:10041400770400086C4B5B680121BA6801FA02F2A8
:10042400D2431146684A0B4053602EE0664B5B682A
:100434000121BA6801FA02F21146634A0B43536080
:10044400614BDB68BA685200032101FA02F2D2431D
:1004540011465D4A0B40D36017E05B4BDB68BA681A
:100464005200012101FA02F21146574A0B43D360AC
:100474000BE0554BDB68BA685200022101FA02F224
:100484001146514A0B43D36000BF92E04D4B1B6BA6
:100494004C4A43F0020313637B68032B3BD801A24D
:1004A40052F823F0B9040008D3040008EB04000850
:1004B40003050008454B1B68BA685200032101FA82
:1004C40002F2D2431146414A0B40136023E03F4BF2
:1004D4001B68BA685200012101FA02F211463B4A34
:1004E4000B43136017E0394B1B68BA6852000221B2
:1004F40001FA02F21146354A0B4313600BE0334B09
:100504001B68BA685200032101FA02F211462F4A0D
:100514000B43136000BF3B68042B4CD801A252F874
:1005240023F000BF3D050008550500086B050008D1
:10053400850500089D050008244B5B680121BA6805
:1005440001FA02F2D2431146204A0B4053602FE0D5
:100554001E4B5B680121BA6801FA02F211461B4A7C
:100564000B43536024E0194BDB68BA685200032143
:1005740001FA02F2D2431146144A0B40D36017E049
:10058400124BDB68BA685200012101FA02F21146EB
:100594000E4A0B43D3600BE00C4BDB68BA68520085
:1005A400022101FA02F21146084A0B43D36000BF4C
:1005B40001E000BF00E000BF00BF1437BD465DF896
:1005C400047B7047003802400000024000040240EF
:1005D40080B487B000AF0346B9607A60FB73FB7BDD
:1005E400412B02D0422B2DD059E0304B1B68BA6806
:1005F4005200032101FA02F21A40BB685B0022FA9E
:1006040003F3012B1BD17B68002B0AD0274B5B69BA
:100614000121BA6801FA02F21146244A0B435361DC
:100624000AE0224B5B690121BA6801FA02F2D24363
:1006340011461E4A0B4053610023FB752FE0012332
:10064400FB752CE01A4B1B68BA685200032101FAAF
:1006540002F21A40BB685B0022FA03F3012B1BD1A0
:100664007B68002B0AD0124B5B690121BA6801FA3E
:1006740002F211460E4A0B4353610AE00C4B5B69CC
:100684000121BA6801FA02F2D2431146084A0B402A
:1006940053610023FB7501E00123FB7500BFFB7D63
:1006A40018461C37BD465DF8047B704700000240C5
:1006B4000004024080B485B000AF03463960FB718A
:1006C400FB79412B02D0422B22D046E0264B1B68FB
:1006D4003A685200032101FA02F21A403B685B00B7
:1006E40022FA03F3002B35D11F4B1B6901213A6811
:1006F40001FA02F211461C4A0B4013613A68D340D6
:10070400012B02D10123FB7324E00023FB7321E0BE
:10071400164B1B683A685200032101FA02F21A4090
:100724003B685B0022FA03F3002B15D10F4B1B69C6
:1007340001213A6801FA02F211460C4A0B40136196
:100744003A68D340012B02D10123FB7304E0002358
:10075400FB7301E000BF00E000BFFB7B18461437C9
:10076400BD465DF8047B704700000240000402406F
:1007740070B50D4D0D4C641BA4100026A64209D182
:100784000B4D0C4C00F018F8641BA4100026A64274
:1007940005D170BD55F8043B98470136EEE755F88E
:1007A400043B98470136F2E7D4070008D407000851
:1007B400D4070008D8070008F8B500BFF8BC08BC87
:1007C4009E467047F8B500BFF8BC08BC9E4670470B
:0407D400B90100085F
:0407D800950100087F
:04000005080002F9F4
:00000001FF
