:020000040800F2
:10000000000001203D0400088D0400088D04000854
:100010008D0400088D0400088D0400080000000015
:100020000000000000000000000000008D04000837
:100030008D040008000000008D0400088D040008F5
:100040008D0400088D0400088D0400088D0400084C
:100050008D0400088D0400088D0400088D0400083C
:100060008D0400088D0400088D0400088D0400082C
:100070008D0400088D0400088D0400088D0400081C
:100080008D0400088D0400088D04000800000000A5
:100090000000000000000000000000008D040008C7
:1000A0008D0400088D0400088D0400088D040008EC
:1000B0008D0400088D0400088D0400088D040008DC
:1000C0008D0400088D0400088D0400088D040008CC
:1000D0008D0400088D0400088D0400080000000055
:1000E0008D0400088D0400088D0400080000000045
:1000F0000000000000000000000000008D04000867
:10010000000000008D0400088D0400088D04000824
:1001100000000000000000000000000000000000DF
:100120008D0400088D0400088D0400088D0400086B
:100130008D04000800000000000000000000000026
:100140000000000000000000000000008D04000816
:100150008D0400088D0400088D0400088D0400083B
:100160008D0400088D04000800000000000000005D
:10017000000000000000000000000000000000007F
:10018000000000008D0400080000000000000000D6
:040190008D040008D2
:1001940010B5054C237833B9044B13B10448AFF3BD
:1001A40000800123237010BD0C000020000000001B
:1001B400D804000808B5034B1BB103490348AFF347
:1001C400008008BD0000000010000020D8040008D2
:1001D40080B483B000AF0346FB71084B1B68FA7907
:1001E400012101FA02F21146044A0B43136000BFD5
:1001F4000C37BD465DF8047B704700BF30380240C1
:1002040090B482B000AF0446084611461A4623460D
:10021400FB710346BB710B467B7113463B71FB7943
:100224003B4A52F823301B68BA795200032101FA81
:1002340002F2D2431046FA79354951F8222003409C
:100244001360FB79324A52F823301B687979BA7902
:10025400520001FA02F21046FA792D4951F822208F
:1002640003431360FB792A4A52F8233004331B6892
:10027400BA79012101FA02F2D2431046FA792449EB
:1002840051F82220043203401360FB79204A52F8CB
:10029400233004331B683A7902F00101BA7901FA78
:1002A40002F21046FA791A4951F822200432034323
:1002B4001360FB79164A52F823300C331B68BA7961
:1002C4005200032101FA02F2D2431046FA7910498E
:1002D40051F822200C3203401360FB790C4A52F887
:1002E40023300C331B683A79521002F00301BA79B7
:1002F400520001FA02F21046FA79054951F8222017
:100304000C320343136000BF0837BD4690BC7047EE
:100314000000002080B485B000AF0346FB710B469B
:10032400BB7113467B71FB79224A52F823301B6858
:10033400BA795200032101FA02F21A40BB795B0038
:1003440022FA03F3012B2BD17B79002B12D0FB79FA
:10035400184A52F8233014331B68BA79012101FA80
:1003640002F21046FA79134951F822201432034359
:10037400136012E0FB790F4A52F8233014331B68E0
:10038400BA79012101FA02F2D2431046FA790949F5
:1003940051F822201432034013600023FB7301E060
:1003A4000123FB73FB7B18461437BD465DF8047BC1
:1003B400704700BF0000002080B582B000AF00206D
:1003C400FFF706FF0023012200210020FFF718FF9A
:1003D400012200210020FFF79DFF00237B6002E043
:1003E4007B6801337B607B68094A9342F8DD002215
:1003F40000210020FFF78EFF00237B6002E07B6872
:1004040001337B607B68024A9342F8DDE0E700BF7A
:100414003F420F0080B400AF064BD3F88830054A42
:1004240043F47003C2F8883000BFBD465DF8047B16
:10043400704700BF00ED00E0DFF834D00D480E49EE
:100444000E4A002302E0D458C4500433C4188C422A
:10045400F9D30B4A0B4C002301E013600432A2428F
:10046400FBD3FFF7D7FF00F011F8FFF7A5FF7047A4
:1004740000000120000000200C000020F804000807
:100484000C00002028000020FEE7000070B50D4D90
:100494000D4C641BA4100026A64209D10B4D0C4C34
:1004A40000F018F8641BA4100026A64205D170BD04
:1004B40055F8043B98470136EEE755F8043B984756
:1004C4000136F2E7F0040008F0040008F004000824
:1004D400F4040008F8B500BFF8BC08BC9E46704799
:0C04E400F8B500BFF8BC08BC9E4670478D
:0404F000B901000846
:0404F4009501000866
:0C04F80000000240000402400008024026
:040000050800043DAE
:00000001FF
