:020000040800F2
:1000000000000120B10200080103000801030008FC
:1000100001030008010300080103000800000000BC
:1000200000000000000000000000000001030008C4
:10003000010300080000000001030008010300089C
:100040000103000801030008010300080103000880
:100050000103000801030008010300080103000870
:100060000103000801030008010300080103000860
:100070000103000801030008010300080103000850
:10008000010300080103000801030008000000004C
:100090000000000000000000000000000103000854
:1000A0000103000801030008010300080103000820
:1000B0000103000801030008010300080103000810
:1000C0000103000801030008010300080103000800
:1000D00001030008010300080103000800000000FC
:1000E00001030008010300080103000800000000EC
:1000F00000000000000000000000000001030008F4
:1001000000000000010300080103000801030008CB
:1001100000000000000000000000000000000000DF
:10012000010300080103000801030008010300089F
:1001300001030008000000000000000000000000B3
:1001400000000000000000000000000001030008A3
:10015000010300080103000801030008010300086F
:100160000103000801030008000000000000000077
:10017000000000000000000000000000000000007F
:100180000000000001030008000000000000000063
:04019000010300085F
:1001940010B5054C237833B9044B13B10448AFF3BD
:1001A40000800123237010BD000000200000000027
:1001B4004C03000808B5034B1BB103490348AFF3D4
:1001C400008008BD00000000040000204C0300086B
:1001D40080B483B000AF0123FB71294B1B6B284A09
:1001E40043F002031363274B1B68264A23F0C00322
:1001F4001360244BDB68234A43F04003D360214B54
:100204001B68204A43F4A84313601E4B5B691D4AD4
:1002140023F0E00353611B4B1B6903F00803002B1D
:10022400F9D100233B6002E03B6801333B603B684B
:100234004CF24F329342F7DD124B1B6903F0080373
:10024400002B15D10F4B5B690E4A23F0E003536179
:100254000C4B5B69FA79520111460A4A0B4353610C
:10026400FB790133FB71FB79082B01D10023FB716E
:1002740000BF044B1B6903F00803002BF9D0CAE745
:10028400003802400004024080B400AF064BD3F8AB
:100294008830054A43F47003C2F8883000BFBD4675
:1002A4005DF8047B704700BF00ED00E0DFF834D058
:1002B4000D480E490E4A002302E0D458C4500433BA
:1002C400C4188C42F9D30B4A0B4C002301E0136091
:1002D4000432A242FBD3FFF7D7FF00F011F8FFF777
:1002E40077FF70470000012000000020000000207C
:1002F4006C030008000000201C000020FEE7000042
:1003040070B50D4D0D4C641BA4100026A64209D1F6
:100314000B4D0C4C00F018F8641BA4100026A642E8
:1003240005D170BD55F8043B98470136EEE755F802
:10033400043B98470136F2E76403000864030008AD
:100344006403000868030008F8B500BFF8BC08BCE3
:100354009E467047F8B500BFF8BC08BC9E4670477F
:04036400B9010008D3
:0403680095010008F3
:04000005080002B13C
:00000001FF
