:020000040800F2
:100000000000012089050008D9050008D90500086D
:10001000D9050008D9050008D9050008000000002E
:10002000000000000000000000000000D9050008EA
:10003000D905000800000000D9050008D90500080E
:10004000D9050008D9050008D9050008D905000818
:10005000D9050008D9050008D9050008D905000808
:10006000D9050008D9050008D9050008D9050008F8
:10007000D9050008D9050008D9050008D9050008E8
:10008000D9050008D9050008D905000800000000BE
:10009000000000000000000000000000D90500087A
:1000A000D9050008D9050008D9050008D9050008B8
:1000B000D9050008D9050008D9050008D9050008A8
:1000C000D9050008D9050008D9050008D905000898
:1000D000D9050008D9050008D9050008000000006E
:1000E000D9050008D9050008D9050008000000005E
:1000F000000000000000000000000000D90500081A
:1001000000000000D9050008D9050008D90500083D
:1001100000000000000000000000000000000000DF
:10012000D9050008D9050008D9050008D905000837
:10013000D9050008000000000000000000000000D9
:10014000000000000000000000000000D9050008C9
:10015000D9050008D9050008D9050008D905000807
:10016000D9050008D90500080000000000000000C3
:10017000000000000000000000000000000000007F
:1001800000000000D9050008000000000000000089
:04019000D905000885
:1001940010B5054C237833B9044B13B10448AFF3BD
:1001A40000800123237010BD000000200000000027
:1001B4003009000808B5034B1BB103490348AFF3EA
:1001C400008008BD00000000040000203009000881
:1001D40080B582B000AF002301220021412000F04D
:1001E400FBF9002301220121412000F0F5F900234D
:1001F40001220221412000F0EFF900230122032112
:10020400412000F0E9F9002301220421412000F0FB
:10021400E3F9002301220521412000F0DDF9002348
:1002240001220621412000F0D7F90023FB7190E15F
:10023400FB79092B00F2808101A252F823F000BF60
:100244006D020008B5020008FD020008450300081D
:100254008D030008D50300081D0400086504000888
:10026400AD040008F504000801220021412000F03B
:10027400C7FA01220121412000F0C2FA0122022121
:10028400412000F0BDFA01220321412000F0B8FA18
:1002940001220421412000F0B3FA0122052141206A
:1002A40000F0AEFA00220621412000F0A9FA43E151
:1002B40000220021412000F0A3FA01220121412063
:1002C40000F09EFA01220221412000F099FA002256
:1002D4000321412000F094FA00220421412000F07F
:1002E4008FFA00220521412000F08AFA002206211B
:1002F400412000F085FA1FE101220021412000F095
:100304007FFA01220121412000F07AFA0022022121
:10031400412000F075FA01220321412000F070FA17
:1003240001220421412000F06BFA00220521412022
:1003340000F066FA01220621412000F061FAFBE098
:1003440001220021412000F05BFA01220121412019
:1003540000F056FA01220221412000F051FA012254
:100364000321412000F04CFA00220421412000F036
:1003740047FA00220521412000F042FA0122062119
:10038400412000F03DFAD7E000220021412000F096
:1003940037FA01220121412000F032FA0122022120
:1003A400412000F02DFA00220321412000F028FA18
:1003B40000220421412000F023FA012205214120DA
:1003C40000F01EFA01220621412000F019FAB3E0E0
:1003D40001220021412000F013FA002201214120D2
:1003E40000F00EFA01220221412000F009FA012254
:1003F4000321412000F004FA00220421412000F0EE
:10040400FFF901220521412000F0FAF90122062119
:10041400412000F0F5F98FE001220021412000F095
:10042400EFF900220121412000F0EAF90122022122
:10043400412000F0E5F901220321412000F0E0F918
:1004440001220421412000F0DBF901220521412091
:1004540000F0D6F901220621412000F0D1F96BE029
:1004640001220021412000F0CBF901220121412089
:1004740000F0C6F901220221412000F0C1F9002256
:100484000321412000F0BCF900220421412000F0A6
:10049400B7F900220521412000F0B2F9002206211B
:1004A400412000F0ADF947E001220021412000F095
:1004B400A7F901220121412000F0A2F90122022121
:1004C400412000F09DF901220321412000F098F918
:1004D40001220421412000F093F901220521412049
:1004E40000F08EF901220621412000F089F923E071
:1004F40001220021412000F083F901220121412041
:1005040000F07EF901220221412000F079F9012254
:100514000321412000F074F900220421412000F05D
:100524006FF901220521412000F06AF90122062118
:10053400412000F065F900BF00233B6002E03B6806
:1005440001333B603B68054A9342F8DDFB79013394
:10055400FB71FB79092B7FF66BAE66E63F420F0019
:1005640080B400AF064BD3F88830054A43F47003D7
:10057400C2F8883000BFBD465DF8047B704700BFF9
:1005840000ED00E0DFF834D00D480E490E4A002398
:1005940002E0D458C4500433C4188C42F9D30B4A33
:1005A4000B4C002301E013600432A242FBD3FFF79B
:1005B400D7FF00F097F9FFF70BFE7047000001200A
:1005C4000000002000000020500900080000002066
:1005D4001C000020FEE7000080B485B000AFB960C5
:1005E4007A603B600346FB73FB7B412B03D0422BB9
:1005F40000F09480F7E07F4B1B6B7E4A43F00103CD
:1006040013637B68032B3CD801A252F823F000BF8C
:10061400250600083F060008570600086F06000874
:10062400754B1B68BA685200032101FA02F2D243E7
:100634001146714A0B40136023E06F4B1B68BA6884
:100644005200012101FA02F211466B4A0B43136076
:1006540017E0694B1B68BA685200022101FA02F2E2
:100664001146654A0B4313600BE0634B1B68BA6881
:100674005200032101FA02F211465F4A0B43136050
:1006840000BF3B68042B00F2AD8001A252F823F0B6
:10069400A9060008C1060008D5060008EF060008F0
:1006A40007070008544B5B680121BA6801FA02F29B
:1006B400D2431146504A0B4053602EE04E4B5B68C8
:1006C4000121BA6801FA02F211464B4A0B43536006
:1006D400494BDB68BA685200032101FA02F2D243A3
:1006E4001146454A0B40D36017E0434BDB68BA68B8
:1006F4005200012101FA02F211463F4A0B43D36032
:100704000BE03D4BDB68BA685200022101FA02F2A9
:100714001146394A0B43D36000BF63E0354B1B6B72
:10072400344A43F0020313637B68032B3BD801A2D2
:1007340052F823F049070008630700087B07000804
:10074400930700082D4B1B68BA685200032101FA75
:1007540002F2D2431146294A0B40136023E0274B8F
:100764001B68BA685200012101FA02F21146234AB9
:100774000B43136017E0214B1B68BA685200022137
:1007840001FA02F211461D4A0B4313600BE01B4BA6
:100794001B68BA685200032101FA02F21146174A93
:1007A4000B43136000BF3B68002B03D03B68012B55
:1007B4000CD018E0114B5B680121BA6801FA02F20F
:1007C400D24311460D4A0B4053600AE00B4B5B6861
:1007D4000121BA6801FA02F21146084A0B43536038
:1007E40000BF00E000BF00BF1437BD465DF8047BC6
:1007F400704700BF0038024000000240000402407D
:1008040080B487B000AF0346B9607A60FB73FB7BAA
:10081400412B02D0422B2DD059E0304B1B68BA68D3
:100824005200032101FA02F21A40BB685B0022FA6B
:1008340003F3012B1BD17B68002B0AD0274B5B6988
:100844000121BA6801FA02F21146244A0B435361AA
:100854000AE0224B5B690121BA6801FA02F2D24331
:1008640011461E4A0B4053610023FB752FE0012300
:10087400FB752CE01A4B1B68BA685200012101FA7F
:1008840002F21A40BB685B0022FA03F3002B1BD070
:100894007B68002B0AD0124B5B690121BA6801FA0C
:1008A40002F211460E4A0B4353610AE00C4B5B699A
:1008B4000121BA6801FA02F2D2431146084A0B40F8
:1008C40053610023FB7501E00123FB7500BFFB7D31
:1008D40018461C37BD465DF8047B70470000024093
:1008E4000004024070B50D4D0D4C641BA41000268D
:1008F400A64209D10B4D0C4C00F018F8641BA4104F
:100904000026A64205D170BD55F8043B9847013630
:10091400EEE755F8043B98470136F2E7480900082A
:1009240048090008480900084C090008F8B500BF48
:10093400F8BC08BC9E467047F8B500BFF8BC08BCBC
:040944009E46704714
:04094800B9010008E9
:04094C009501000809
:040000050800058961
:00000001FF
