:020000040800F2
:1000000000000120F5060008450700084507000824
:1000100045070008450700084507000800000000E4
:10002000000000000000000000000000450700087C
:1000300045070008000000004507000845070008C4
:100040004507000845070008450700084507000860
:100050004507000845070008450700084507000850
:100060004507000845070008450700084507000840
:100070004507000845070008450700084507000830
:100080004507000845070008450700080000000074
:10009000000000000000000000000000450700080C
:1000A0004507000845070008450700084507000800
:1000B00045070008450700084507000845070008F0
:1000C00045070008450700084507000845070008E0
:1000D0004507000845070008450700080000000024
:1000E0004507000845070008450700080000000014
:1000F00000000000000000000000000045070008AC
:1001000000000000450700084507000845070008F3
:1001100000000000000000000000000000000000DF
:10012000450700084507000845070008450700087F
:10013000450700080000000000000000000000006B
:10014000000000000000000000000000450700085B
:10015000450700084507000845070008450700084F
:1001600045070008450700080000000000000000E7
:10017000000000000000000000000000000000007F
:10018000000000004507000800000000000000001B
:040190004507000817
:1001940010B5054C237833B9044B13B10448AFF3BD
:1001A40000800123237010BD1C000020000000000B
:1001B4009007000808B5034B1BB103490348AFF38C
:1001C400008008BD00000000200000209007000807
:1001D40080B483B000AF0346FB71FB79412B02D09E
:1001E400422B07D00DE00A4B1B6B094A43F0010375
:1001F400136306E0064B1B6B054A43F002031363CB
:1002040000BF00BF0C37BD465DF8047B704700BFDC
:100214000038024090B482B000AF0446084611464C
:100224001A462346FB710346BB710B467B7113468A
:100234003B71FB79412B02D0422B49D091E04B4BCF
:100244001B68BA795200032101FA02F2D243114623
:10025400464A0B401360454B1B687979BA795200C2
:1002640001FA02F21146414A0B4313603F4B5B68AB
:10027400BA79012101FA02F2D24311463B4A0B40FA
:1002840053603A4B5B683A7902F00101BA7901FA9A
:1002940002F21146354A0B435360344BDB68BA799A
:1002A4005200032101FA02F2D24311462F4A0B40B5
:1002B400D3602E4BDB683A79521002F00301BA790D
:1002C400520001FA02F21146284A0B43D36048E077
:1002D400274B1B68BA795200032101FA02F2D24378
:1002E4001146234A0B401360214B1B687979BA7974
:1002F400520001FA02F211461D4A0B4313601C4BD3
:100304005B68BA79012101FA02F2D2431146184A14
:100314000B405360164B5B683A7902F00101BA79DD
:1003240001FA02F21146124A0B435360104BDB6888
:10033400BA795200032101FA02F2D24311460C4A5F
:100344000B40D3600A4BDB683A79521002F0030188
:10035400BA79520001FA02F21146054A0B43D360FE
:1003640000BF00BF0837BD4690BC70470000024084
:100374000004024080B485B000AF0346FB710B4615
:10038400BB7113467B71FB79412B02D0422B2DD0DC
:1003940059E0324B1B68BA795200032101FA02F288
:1003A4001A40BB795B0022FA03F3012B1BD17B7942
:1003B400002B0AD0294B5B69BA79012101FA02F2B8
:1003C4001146264A0B4353610AE0244B5B69BA7910
:1003D400012101FA02F2D2431146204A0B40536133
:1003E4000023FB7332E00123FB732FE01C4B1B68DB
:1003F400BA795200032101FA02F21A40BB795B0078
:1004040022FA03F3012B1BD17B79002B0AD0144B66
:100414005B69BA79012101FA02F21146104A0B43D1
:1004240053610AE00E4B5B69BA79012101FA02F2C9
:10043400D24311460A4A0B4053610023FB7305E083
:100444000123FB7302E00123FB7300BFFB7B18460F
:100454001437BD465DF8047B704700BF00000240BE
:100464000004024080B485B000AF03460A46FB7125
:100474001346BB710023FB73FB79412B02D0422B43
:100484000CD017E00F4B1B69BA79012101FA02F273
:100494001A40BB7922FA03F3FB730BE00A4B1B6986
:1004A400BA79012101FA02F21A40BB7922FA03F364
:1004B400FB7300BFFB7B18461437BD465DF8047B15
:1004C400704700BF000002400004024080B500AF46
:1004D4004220FFF77DFE0023012200214220FFF786
:1004E40099FE0023012201214220FFF793FE0023FD
:1004F400012202214220FFF78DFE02230022032164
:100504004220FFF787FE0223002204214220FFF746
:1005140081FE0223002205214220FFF77BFE0223F5
:10052400002206214220FFF775FE00BF80BD0000B7
:1005340080B582B000AF264B1B78012B43D100233A
:10054400FB713DE0FB79002219464220FFF712FFC0
:100554000023BB7128E0BB790333DBB21946422088
:10056400FFF780FF0346002B1BD100F04DF8BB7949
:100574000333DBB219464220FFF774FF0346002B16
:100584000FD1BA79F979134813465B001344034435
:100594000B441A78104B1A700D4B00221A7000F09D
:1005A40051F8BB790133BB71BB79032BD3D9FB79E8
:1005B400012219464220FFF7DDFEFB790133FB716E
:1005C400FB79022BBED900BF0837BD4680BD00BFF2
:1005D40000000020040000203800002080B400AF98
:1005E400074B1B78002B05D1054B01221A70054BD4
:1005F4001B7800E0FF231846BD465DF8047B704776
:10060400000000203800002080B483B000AF002335
:100614007B6002E07B6801337B607B6847F22F528A
:100624009342F7D900BF00BF0C37BD465DF8047B89
:10063400704780B500AFFFF749FF00F02DF8FFF7D2
:1006440077FFFCE780B582B000AFFFF7C7FF034632
:10065400BB710023FB7115E0BB790E4AD35C1946CC
:10066400FB79012202FA03F301EA0302FB7942FA5D
:1006740003F3DAB2FB7919464120FFF77BFEFB79DD
:100684000133FB71FB79062BE6D900BF00BF0837A5
:10069400BD4680BD1000002080B582B000AF0023AD
:1006A400FB714120FFF794FD08E0F9790023012252
:1006B4004120FFF7AFFDFB790133FB71FB79062B7A
:1006C400F3D900BF00BF0837BD4680BD80B400AF7A
:1006D400064BD3F88830054A43F47003C2F88830D7
:1006E40000BFBD465DF8047B704700BF00ED00E02D
:1006F400DFF834D00D480E490E4A002302E0D458E6
:10070400C4500433C4188C42F9D30B4A0B4C002355
:1007140001E013600432A242FBD3FFF7D7FF00F0DD
:1007240011F8FFF786FF7047000001200000002049
:100734001C000020B00700081C0000203C00002022
:10074400FEE7000070B50D4D0D4C641BA41000268F
:10075400A64209D10B4D0C4C00F018F8641BA410F0
:100764000026A64205D170BD55F8043B98470136D2
:10077400EEE755F8043B98470136F2E7A80700086E
:10078400A8070008A8070008AC070008F8B500BFD0
:10079400F8BC08BC9E467047F8B500BFF8BC08BC5E
:0407A4009E467047B6
:0407A800B90100088B
:0407AC0095010008AB
:1007B000010000000102030405060708090000000B
:0C07C0003F065B4F666D7D077F6F0000F9
:04000005080006F5F4
:00000001FF
