:020000040800F2
:1000000000000120F1040008410500084105000836
:1000100041050008410500084105000800000000F6
:100020000000000000000000000000004105000882
:1000300041050008000000004105000841050008D6
:100040004105000841050008410500084105000878
:100050004105000841050008410500089104000819
:100060004105000841050008410500084105000858
:100070004105000841050008410500084105000848
:100080004105000841050008410500080000000086
:100090000000000000000000000000004105000812
:1000A0004105000841050008410500084105000818
:1000B0004105000841050008410500084105000808
:1000C00041050008410500084105000841050008F8
:1000D0004105000841050008410500080000000036
:1000E0004105000841050008410500080000000026
:1000F00000000000000000000000000041050008B2
:100100000000000041050008410500084105000805
:1001100000000000000000000000000000000000DF
:100120004105000841050008410500084105000897
:100130004105000800000000000000000000000071
:100140000000000000000000000000004105000861
:100150004105000841050008410500084105000867
:1001600041050008410500080000000000000000F3
:10017000000000000000000000000000000000007F
:100180000000000041050008000000000000000021
:04019000410500081D
:1001940010B5054C237833B9044B13B10448AFF3BD
:1001A40000800123237010BD0C000020000000001B
:1001B4008C05000808B5034B1BB103490348AFF392
:1001C400008008BD00000000100000208C0500081D
:1001D40080B483B000AF0346FB71084B1B68FA7907
:1001E400012101FA02F21146044A0B43136000BFD5
:1001F4000C37BD465DF8047B704700BF30380240C1
:1002040090B482B000AF0446084611461A4623460D
:10021400FB710346BB710B467B7113463B71FB7943
:100224003B4A52F823301B68BA795200032101FA81
:1002340002F2D2431046FA79354951F8222003409C
:100244001360FB79324A52F823301B687979BA7902
:10025400520001FA02F21046FA792D4951F822208F
:1002640003431360FB792A4A52F8233004331B6892
:10027400BA79012101FA02F2D2431046FA792449EB
:1002840051F82220043203401360FB79204A52F8CB
:10029400233004331B683A7902F00101BA7901FA78
:1002A40002F21046FA791A4951F822200432034323
:1002B4001360FB79164A52F823300C331B68BA7961
:1002C4005200032101FA02F2D2431046FA7910498E
:1002D40051F822200C3203401360FB790C4A52F887
:1002E40023300C331B683A79521002F00301BA79B7
:1002F400520001FA02F21046FA79054951F8222017
:100304000C320343136000BF0837BD4690BC7047EE
:100314000000002080B485B000AF0346FB710B469B
:10032400BB7113467B71FB79224A52F823301B6858
:10033400BA795200032101FA02F21A40BB795B0038
:1003440022FA03F3012B2BD17B79002B12D0FB79FA
:10035400184A52F8233014331B68BA79012101FA80
:1003640002F21046FA79134951F822201432034359
:10037400136012E0FB790F4A52F8233014331B68E0
:10038400BA79012101FA02F2D2431046FA790949F5
:1003940051F822201432034013600023FB7301E060
:1003A4000123FB73FB7B18461437BD465DF8047BC1
:1003B400704700BF0000002080B485B000AF034642
:1003C4000A46FB711346BB710023FB73FB790A4A8F
:1003D40052F8233010331B68BA79012101FA02F272
:1003E4001A40BB7922FA03F3FB73FB7B18461437DC
:1003F400BD465DF8047B70470000002080B500AF67
:100404000020FFF7E5FE0023012200210020FFF772
:10041400F7FE0223002201210020FFF7F1FE002253
:1004240000210020FFF776FF124B1B68114A43F4AA
:1004340080431360104B1B680F4A23F0F0031360D2
:100444000E4B1B680D4A43F0020313600C4B1B68F0
:100454000B4A43F0020313600A4B1B68094A23F05A
:1004640002031360084B1B68074A43F080031360C0
:10047400FEE700BF4438024008380140003C014018
:100484000C3C0140083C014000E100E080B582B032
:1004940000AF00210020FFF78FFF034683F0010324
:1004A400FB71FB791A4600210020FFF733FF054B4F
:1004B4001B68044A43F00103136000BF0837BD46BC
:1004C40080BD00BF083C014080B400AF064BD3F8A8
:1004D4008830054A43F47003C2F8883000BFBD4633
:1004E4005DF8047B704700BF00ED00E0DFF834D016
:1004F4000D480E490E4A002302E0D458C450043378
:10050400C4188C42F9D30B4A0B4C002301E013604E
:100514000432A242FBD3FFF7D7FF00F011F8FFF734
:100524006DFF704700000120000000200C00002037
:10053400AC0500080C00002028000020FEE70000A5
:1005440070B50D4D0D4C641BA4100026A64209D1B4
:100554000B4D0C4C00F018F8641BA4100026A642A6
:1005640005D170BD55F8043B98470136EEE755F8C0
:10057400043B98470136F2E7A4050008A4050008E7
:10058400A4050008A8050008F8B500BFF8BC08BC1D
:100594009E467047F8B500BFF8BC08BC9E4670473D
:0405A400B901000891
:0405A80095010008B1
:0C05AC0000000240000402400008024071
:04000005080004F1FA
:00000001FF
