:020000040800F2
:1000000000000120210400087104000871040008A8
:100010007104000871040008710400080000000069
:100020000000000000000000000000007104000853
:100030007104000800000000710400087104000849
:1000400071040008710400087104000871040008BC
:1000500071040008710400087104000871040008AC
:10006000710400087104000871040008710400089C
:10007000710400087104000871040008710400088C
:1000800071040008710400087104000800000000F9
:1000900000000000000000000000000071040008E3
:1000A000710400087104000871040008710400085C
:1000B000710400087104000871040008710400084C
:1000C000710400087104000871040008710400083C
:1000D00071040008710400087104000800000000A9
:1000E0007104000871040008710400080000000099
:1000F0000000000000000000000000007104000883
:100100000000000071040008710400087104000878
:1001100000000000000000000000000000000000DF
:1001200071040008710400087104000871040008DB
:100130007104000800000000000000000000000042
:100140000000000000000000000000007104000832
:1001500071040008710400087104000871040008AB
:100160007104000871040008000000000000000095
:10017000000000000000000000000000000000007F
:1001800000000000710400080000000000000000F2
:0401900071040008EE
:1001940010B5054C237833B9044B13B10448AFF3BD
:1001A40000800123237010BD0C000020000000001B
:1001B400BC04000808B5034B1BB103490348AFF363
:1001C400008008BD0000000010000020BC040008EE
:1001D40080B483B000AF0346FB71084B1B68FA7907
:1001E400012101FA02F21146044A0B43136000BFD5
:1001F4000C37BD465DF8047B704700BF30380240C1
:1002040090B482B000AF0446084611461A4623460D
:10021400FB710346BB710B467B7113463B71FB7943
:100224003B4A52F823301B68BA795200032101FA81
:1002340002F2D2431046FA79354951F8222003409C
:100244001360FB79324A52F823301B687979BA7902
:10025400520001FA02F21046FA792D4951F822208F
:1002640003431360FB792A4A52F8233004331B6892
:10027400BA79012101FA02F2D2431046FA792449EB
:1002840051F82220043203401360FB79204A52F8CB
:10029400233004331B683A7902F00101BA7901FA78
:1002A40002F21046FA791A4951F822200432034323
:1002B4001360FB79164A52F823300C331B68BA7961
:1002C4005200032101FA02F2D2431046FA7910498E
:1002D40051F822200C3203401360FB790C4A52F887
:1002E40023300C331B683A79521002F00301BA79B7
:1002F400520001FA02F21046FA79054951F8222017
:100304000C320343136000BF0837BD4690BC7047EE
:100314000000002080B584B000AF0020FFF758FF34
:100324002D4B1B682C4A43F4E06313600023022224
:1003340002210020FFF764FF284B1B68274A43F47F
:1003440000331360264B1B68254A43F400531360A3
:10035400234B1B68224A43F008031360204B1B689D
:100364001F4A23F4004313601D4B1B681C4A23F4EB
:10037400805313601B4B1B681A4A23F440531360C9
:10038400194B1B68184A43F4D06343F0030313600A
:10039400164A3B4607CA83E807000023FB7311E0B3
:1003A400FB7B07F11002134413F8102C104B1A6056
:1003B40000BF104B1B6803F04003002BF9D0FB7BFC
:1003C4000133FB73FB7B07F11002134413F8103C59
:1003D400002BE5D1FEE700BF200002404038024078
:1003E4000C4400401044004008440040D404000879
:1003F400044400400044004080B400AF064BD3F8EE
:100404008830054A43F47003C2F8883000BFBD4603
:100414005DF8047B704700BF00ED00E0DFF834D0E6
:100424000D480E490E4A002302E0D458C450043348
:10043400C4188C42F9D30B4A0B4C002301E013601F
:100444000432A242FBD3FFF7D7FF00F011F8FFF705
:1004540061FF704700000120000000200C00002014
:10046400E80400080C00002028000020FEE700003B
:1004740070B50D4D0D4C641BA4100026A64209D185
:100484000B4D0C4C00F018F8641BA4100026A64277
:1004940005D170BD55F8043B98470136EEE755F891
:1004A400043B98470136F2E7E0040008E004000842
:1004B400E0040008E4040008F8B500BFF8BC08BC78
:1004C4009E467047F8B500BFF8BC08BC9E4670470E
:0C04D40048656C6C6F20576F726C640000
:0404E000B901000856
:0404E4009501000876
:0C04E80000000240000402400008024036
:0400000508000421CA
:00000001FF
