:020000040800F2
:1000000000000120110600086106000861060008D2
:100010006106000861060008610600080000000093
:100020000000000000000000000000006106000861
:100030006106000800000000610600086106000873
:1000400061060008610600086106000861060008F4
:100050006106000861060008310500088D050008EA
:1000600061060008610600086106000861060008D4
:1000700061060008610600086106000861060008C4
:100080006106000861060008610600080000000023
:1000900000000000000000000000000061060008F1
:1000A0006106000861060008610600086106000894
:1000B0006106000861060008610600086106000884
:1000C0006106000861060008610600086106000874
:1000D00061060008610600086106000800000000D3
:1000E00061060008610600086106000800000000C3
:1000F0000000000000000000000000006106000891
:1001000000000000610600086106000861060008A2
:1001100000000000000000000000000000000000DF
:100120006106000861060008610600086106000813
:100130006106000800000000000000000000000050
:100140000000000000000000000000006106000840
:1001500061060008610600086106000861060008E3
:1001600061060008610600080000000000000000B1
:10017000000000000000000000000000000000007F
:100180000000000061060008000000000000000000
:0401900061060008FC
:1001940010B5054C237833B9044B13B10448AFF3BD
:1001A40000800123237010BD0C000020000000001B
:1001B400AC06000808B5034B1BB103490348AFF371
:1001C400008008BD0000000010000020AC060008FC
:1001D40080B483B000AF0346FB71084B1B68FA7907
:1001E400012101FA02F21146044A0B43136000BFD5
:1001F4000C37BD465DF8047B704700BF30380240C1
:1002040090B482B000AF0446084611461A4623460D
:10021400FB710346BB710B467B7113463B71FB7943
:100224003B4A52F823301B68BA795200032101FA81
:1002340002F2D2431046FA79354951F8222003409C
:100244001360FB79324A52F823301B687979BA7902
:10025400520001FA02F21046FA792D4951F822208F
:1002640003431360FB792A4A52F8233004331B6892
:10027400BA79012101FA02F2D2431046FA792449EB
:1002840051F82220043203401360FB79204A52F8CB
:10029400233004331B683A7902F00101BA7901FA78
:1002A40002F21046FA791A4951F822200432034323
:1002B4001360FB79164A52F823300C331B68BA7961
:1002C4005200032101FA02F2D2431046FA7910498E
:1002D40051F822200C3203401360FB790C4A52F887
:1002E40023300C331B683A79521002F00301BA79B7
:1002F400520001FA02F21046FA79054951F8222017
:100304000C320343136000BF0837BD4690BC7047EE
:100314000000002080B485B000AF0346FB710B469B
:10032400BB7113467B71FB79224A52F823301B6858
:10033400BA795200032101FA02F21A40BB795B0038
:1003440022FA03F3012B2BD17B79002B12D0FB79FA
:10035400184A52F8233014331B68BA79012101FA80
:1003640002F21046FA79134951F822201432034359
:10037400136012E0FB790F4A52F8233014331B68E0
:10038400BA79012101FA02F2D2431046FA790949F5
:1003940051F822201432034013600023FB7301E060
:1003A4000123FB73FB7B18461437BD465DF8047BC1
:1003B400704700BF0000002080B582B000AF00206D
:1003C400FFF706FF0223002200210020FFF718FF99
:1003D4000223002201210020FFF712FF3D4B1B687E
:1003E4003C4A43F4804313603B4B1B683A4A23F076
:1003F4000F031360384B1B68374A23F0F003136074
:10040400364B1B68354A43F001031360334B1B68BA
:10041400324A43F002031360314B1B68304A43F005
:10042400010313602F4B1B682E4A23F00103136052
:100434002B4B1B682A4A43F002031360294B1B68A9
:10044400284A23F002031360274B1B68264A43F013
:1004540040031360244B1B68234A43F0800313605A
:1004640000F04AF8214B1B68204A43F080031360D4
:100474001E4B1B681D4A43F0400313601C4B1B7842
:10048400BB71194B1B68184A43F040031360164BA9
:100494001B68154A43F0800313600023FB7115E0C9
:1004A400BB79144AD35C1946FB79012202FA03F39F
:1004B40001EA0302FB7942FA03F3DAB2FB79194643
:1004C4000120FFF727FFFB790133FB71FB79062B32
:1004D400E6D9C7E74438024008380140003C0140EF
:1004E4000C3C0140083C014000E100E080E200E0F7
:1004F40028000020C406000880B582B000AF0023A5
:10050400FB710120FFF764FE08E0F9790023012262
:100514000120FFF775FEFB790133FB71FB79062B94
:10052400F3D900BF00BF0837BD4680BD80B400AF1B
:10053400114B1B68104A43F0800313600F4B1B7868
:100544000133DAB20D4B1A700C4B1B78092B02D90C
:100554000A4B00221A700A4B1B68094A43F08003B5
:100564001360084B1B68074A43F00103136000BF84
:10057400BD465DF8047B704780E200E0280000205F
:1005840000E100E0143C014080B400AF124B1B6852
:10059400114A43F040031360104B1B78002B03D126
:1005A4000E4B09221A7005E00C4B1B78013BDAB2A2
:1005B4000A4B1A700A4B1B68094A43F04003136044
:1005C400084B1B68074A43F00203136000BFBD4693
:1005D4005DF8047B704700BF80E200E02800002043
:1005E40000E100E0143C014080B400AF064BD3F8B6
:1005F4008830054A43F47003C2F8883000BFBD4612
:100604005DF8047B704700BF00ED00E0DFF834D0F4
:100614000D480E490E4A002302E0D458C450043356
:10062400C4188C42F9D30B4A0B4C002301E013602D
:100634000432A242FBD3FFF7D7FF00F011F8FFF713
:10064400BBFE704700000120000000200C000020C9
:10065400D80600080C0000202C000020FEE7000053
:1006640070B50D4D0D4C641BA4100026A64209D193
:100674000B4D0C4C00F018F8641BA4100026A64285
:1006840005D170BD55F8043B98470136EEE755F89F
:10069400043B98470136F2E7D0060008D00600086C
:1006A400D0060008D4060008F8B500BFF8BC08BCA2
:1006B4009E467047F8B500BFF8BC08BC9E4670471C
:0C06C4003F065B4F666D7D077F6F0000F6
:0406D000B901000864
:0406D4009501000884
:0C06D80000000240000402400008024044
:0400000508000611D8
:00000001FF
