:020000040800F2
:1000000000000120D1050008210600082106000893
:100010002106000821060008210600080000000053
:1000200000000000000000000000000021060008A1
:100030002106000800000000210600082106000833
:1000400021060008210600082106000821060008F4
:100050002106000821060008110500085D050008BA
:1000600021060008210600082106000821060008D4
:1000700021060008210600082106000821060008C4
:1000800021060008210600082106000800000000E3
:100090000000000000000000000000002106000831
:1000A0002106000821060008210600082106000894
:1000B0002106000821060008210600082106000884
:1000C0002106000821060008210600082106000874
:1000D0002106000821060008210600080000000093
:1000E0002106000821060008210600080000000083
:1000F00000000000000000000000000021060008D1
:100100000000000021060008210600082106000862
:1001100000000000000000000000000000000000DF
:100120002106000821060008210600082106000813
:100130002106000800000000000000000000000090
:100140000000000000000000000000002106000880
:1001500021060008210600082106000821060008E3
:100160002106000821060008000000000000000031
:10017000000000000000000000000000000000007F
:100180000000000021060008000000000000000040
:04019000210600083C
:1001940010B5054C237833B9044B13B10448AFF3BD
:1001A40000800123237010BD0C000020000000001B
:1001B4006C06000808B5034B1BB103490348AFF3B1
:1001C400008008BD00000000100000206C0600083C
:1001D40080B483B000AF0346FB71084B1B68FA7907
:1001E400012101FA02F21146044A0B43136000BFD5
:1001F4000C37BD465DF8047B704700BF30380240C1
:1002040090B482B000AF0446084611461A4623460D
:10021400FB710346BB710B467B7113463B71FB7943
:100224003B4A52F823301B68BA795200032101FA81
:1002340002F2D2431046FA79354951F8222003409C
:100244001360FB79324A52F823301B687979BA7902
:10025400520001FA02F21046FA792D4951F822208F
:1002640003431360FB792A4A52F8233004331B6892
:10027400BA79012101FA02F2D2431046FA792449EB
:1002840051F82220043203401360FB79204A52F8CB
:10029400233004331B683A7902F00101BA7901FA78
:1002A40002F21046FA791A4951F822200432034323
:1002B4001360FB79164A52F823300C331B68BA7961
:1002C4005200032101FA02F2D2431046FA7910498E
:1002D40051F822200C3203401360FB790C4A52F887
:1002E40023300C331B683A79521002F00301BA79B7
:1002F400520001FA02F21046FA79054951F8222017
:100304000C320343136000BF0837BD4690BC7047EE
:100314000000002080B485B000AF0346FB710B469B
:10032400BB7113467B71FB79224A52F823301B6858
:10033400BA795200032101FA02F21A40BB795B0038
:1003440022FA03F3012B2BD17B79002B12D0FB79FA
:10035400184A52F8233014331B68BA79012101FA80
:1003640002F21046FA79134951F822201432034359
:10037400136012E0FB790F4A52F8233014331B68E0
:10038400BA79012101FA02F2D2431046FA790949F5
:1003940051F822201432034013600023FB7301E060
:1003A4000123FB73FB7B18461437BD465DF8047BC1
:1003B400704700BF0000002080B500AF0020FFF7A9
:1003C40007FF0223002200210020FFF719FF022368
:1003D400002201210020FFF713FF244B1B68234A4E
:1003E40043F480431360224B1B68214A23F00F031C
:1003F40013601F4B1B681E4A23F0F00313601D4B50
:100404001B681C4A43F0010313601A4B1B68194A0A
:1004140043F002031360184B1B68174A43F00103AF
:100424001360164B1B68154A23F001031360124B2B
:100434001B68114A43F002031360104B1B680F4AF8
:1004440023F0020313600E4B1B680D4A43F0400374
:1004540013600B4B1B680A4A43F08003136000F0DF
:1004640011F8002000F028F8FEE700BF44380240ED
:1004740008380140003C01400C3C0140083C01406C
:1004840000E100E080B582B000AF0023FB710120E1
:10049400FFF79EFE08E0F979002301220120FFF70F
:1004A400AFFEFB790133FB71FB79062BF3D900BF57
:1004B40000BF0837BD4680BD80B584B000AF034699
:1004C400FB710023FB730023FB7315E0FB790E4AD9
:1004D400D35C1946FB7B012202FA03F301EA03020F
:1004E400FB7B42FA03F3DAB2FB7B19460120FFF7E8
:1004F40011FFFB7B0133FB73FB7B062BE6D900BFAB
:1005040000BF1037BD4680BD8406000880B500AF2B
:100514000F4B1B680E4A23F0800313600D4B1B78AE
:100524000133DAB20B4B1A700A4B1B78092B02D930
:10053400084B00221A70074B1B781846FFF7BCFFC4
:10054400034B1B68024A43F08003136000BF80BD65
:1005540000E100E02800002080B500AF104B1B68CC
:100564000F4A23F0400313600E4B1B78002B03D17A
:100574000C4B09221A7005E00A4B1B78013BDAB2D6
:10058400084B1A70074B1B781846FFF795FF044B6E
:100594001B68034A43F04003136000BF80BD00BFE3
:1005A40000E100E02800002080B400AF064BD3F83F
:1005B4008830054A43F47003C2F8883000BFBD4652
:1005C4005DF8047B704700BF00ED00E0DFF834D035
:1005D4000D480E490E4A002302E0D458C450043397
:1005E400C4188C42F9D30B4A0B4C002301E013606E
:1005F4000432A242FBD3FFF7D7FF00F011F8FFF754
:10060400DBFE704700000120000000200C000020E9
:10061400980600080C0000202C000020FEE70000D3
:1006240070B50D4D0D4C641BA4100026A64209D1D3
:100634000B4D0C4C00F018F8641BA4100026A642C5
:1006440005D170BD55F8043B98470136EEE755F8DF
:10065400043B98470136F2E790060008900600082C
:100664009006000894060008F8B500BFF8BC08BC62
:100674009E467047F8B500BFF8BC08BC9E4670475C
:0C0684003F065B4F666D7D077F6F000036
:04069000B9010008A4
:0406940095010008C4
:0C06980000000240000402400008024084
:04000005080005D119
:00000001FF
