:020000040800F2
:100000000000012049040008990400089904000830
:1000100099040008990400089904000800000000F1
:10002000000000000000000000000000990400082B
:1000300099040008000000009904000899040008D1
:10004000990400089904000899040008990400081C
:10005000990400089904000899040008990400080C
:1000600099040008990400089904000899040008FC
:1000700099040008990400089904000899040008EC
:100080009904000899040008990400080000000081
:1000900000000000000000000000000099040008BB
:1000A00099040008990400089904000899040008BC
:1000B00099040008990400089904000899040008AC
:1000C000990400089904000899040008990400089C
:1000D0009904000899040008990400080000000031
:1000E0009904000899040008990400080000000021
:1000F000000000000000000000000000990400085B
:100100000000000099040008990400089904000800
:1001100000000000000000000000000000000000DF
:10012000990400089904000899040008990400083B
:10013000990400080000000000000000000000001A
:10014000000000000000000000000000990400080A
:10015000990400089904000899040008990400080B
:100160009904000899040008000000000000000045
:10017000000000000000000000000000000000007F
:1001800000000000990400080000000000000000CA
:0401900099040008C6
:1001940010B5054C237833B9044B13B10448AFF3BD
:1001A40000800123237010BD000000200000000027
:1001B400F007000808B5034B1BB103490348AFF32C
:1001C400008008BD0000000004000020F0070008C3
:1001D40080B584B000AF002301220021412000F04B
:1001E4005BF9002301220121412000F055F900238D
:1001F40001220221412000F04FF9002301220321B2
:10020400412000F049F9002301220421412000F09B
:1002140043F9002301220521412000F03DF9002388
:1002240001220621412000F037F90023FB73EFE09F
:100234000023BB73DBE0FB7B092B00F2D58001A21A
:1002440052F823F07102000897020008BD0200086A
:10025400E3020008090300082F03000855030008FF
:100264007B030008A1030008C70300083F23FB71B8
:10027400FA79BB7B012101FA03F31A40BB7B42FAF2
:1002840003F3BB71BB7BBA791946412000F018FA1D
:10029400AAE00623FB71FA79BB7B012101FA03F37F
:1002A4001A40BB7B42FA03F3BB71BB7BBA79194694
:1002B400412000F005FA97E05B23FB71FA79BB7BE0
:1002C400012101FA03F31A40BB7B42FA03F3BB7129
:1002D400BB7BBA791946412000F0F2F984E04F2340
:1002E400FB71FA79BB7B012101FA03F31A40BB7B52
:1002F40042FA03F3BB71BB7BBA791946412000F083
:10030400DFF971E06623FB71FA79BB7B012101FA05
:1003140003F31A40BB7B42FA03F3BB71BB7BBA798C
:100324001946412000F0CCF95EE06D23FB71FA79A7
:10033400BB7B012101FA03F31A40BB7B42FA03F3AE
:10034400BB71BB7BBA791946412000F0B9F94BE087
:100354007D23FB71FA79BB7B012101FA03F31A4077
:10036400BB7B42FA03F3BB71BB7BBA7919464120CC
:1003740000F0A6F938E00723FB71FA79BB7B012171
:1003840001FA03F31A40BB7B42FA03F3BB71BB7B54
:10039400BA791946412000F093F925E07F23FB71D7
:1003A400FA79BB7B012101FA03F31A40BB7B42FAC1
:1003B40003F3BB71BB7BBA791946412000F080F985
:1003C40012E06F23FB71FA79BB7B012101FA03F37D
:1003D4001A40BB7B42FA03F3BB71BB7BBA79194663
:1003E400412000F06DF900BFBB7B0133BB73BB7BC5
:1003F400062B7FF620AF0023BB6002E0BB6801330D
:10040400BB60BB68054A9342F8DDFB7B0133FB7399
:10041400FB7B092B7FF60CAF07E700BF3F420F00C1
:1004240080B400AF064BD3F88830054A43F4700318
:10043400C2F8883000BFBD465DF8047B704700BF3A
:1004440000ED00E0DFF834D00D480E490E4A0023D9
:1004540002E0D458C4500433C4188C42F9D30B4A74
:100464000B4C002301E013600432A242FBD3FFF7DC
:10047400D7FF00F097F9FFF7ABFE704700000120AB
:1004840000000020000000201008000800000020E8
:100494001C000020FEE7000080B485B000AFB96006
:1004A4007A603B600346FB73FB7B412B03D0422BFA
:1004B40000F09480F7E07F4B1B6B7E4A43F001030E
:1004C40013637B68032B3CD801A252F823F000BFCE
:1004D400E5040008FF040008170500082F050008BC
:1004E400754B1B68BA685200032101FA02F2D24329
:1004F4001146714A0B40136023E06F4B1B68BA68C6
:100504005200012101FA02F211466B4A0B431360B7
:1005140017E0694B1B68BA685200022101FA02F223
:100524001146654A0B4313600BE0634B1B68BA68C2
:100534005200032101FA02F211465F4A0B43136091
:1005440000BF3B68042B00F2AD8001A252F823F0F7
:10055400690500088105000895050008AF05000835
:10056400C7050008544B5B680121BA6801FA02F21E
:10057400D2431146504A0B4053602EE04E4B5B6809
:100584000121BA6801FA02F211464B4A0B43536047
:10059400494BDB68BA685200032101FA02F2D243E4
:1005A4001146454A0B40D36017E0434BDB68BA68F9
:1005B4005200012101FA02F211463F4A0B43D36073
:1005C4000BE03D4BDB68BA685200022101FA02F2EB
:1005D4001146394A0B43D36000BF63E0354B1B6BB4
:1005E400344A43F0020313637B68032B3BD801A214
:1005F40052F823F009060008230600083B06000809
:10060400530600082D4B1B68BA685200032101FAF7
:1006140002F2D2431146294A0B40136023E0274BD0
:100624001B68BA685200012101FA02F21146234AFA
:100634000B43136017E0214B1B68BA685200022178
:1006440001FA02F211461D4A0B4313600BE01B4BE7
:100654001B68BA685200032101FA02F21146174AD4
:100664000B43136000BF3B68002B03D03B68012B96
:100674000CD018E0114B5B680121BA6801FA02F250
:10068400D24311460D4A0B4053600AE00B4B5B68A2
:100694000121BA6801FA02F21146084A0B43536079
:1006A40000BF00E000BF00BF1437BD465DF8047B07
:1006B400704700BF003802400000024000040240BE
:1006C40080B487B000AF0346B9607A60FB73FB7BEC
:1006D400412B02D0422B2DD059E0304B1B68BA6815
:1006E4005200032101FA02F21A40BB685B0022FAAD
:1006F40003F3012B1BD17B68002B0AD0274B5B69CA
:100704000121BA6801FA02F21146244A0B435361EB
:100714000AE0224B5B690121BA6801FA02F2D24372
:1007240011461E4A0B4053610023FB752FE0012341
:10073400FB752CE01A4B1B68BA685200012101FAC0
:1007440002F21A40BB685B0022FA03F3002B1BD0B1
:100754007B68002B0AD0124B5B690121BA6801FA4D
:1007640002F211460E4A0B4353610AE00C4B5B69DB
:100774000121BA6801FA02F2D2431146084A0B4039
:1007840053610023FB7501E00123FB7500BFFB7D72
:1007940018461C37BD465DF8047B704700000240D4
:1007A4000004024070B50D4D0D4C641BA4100026CE
:1007B400A64209D10B4D0C4C00F018F8641BA41090
:1007C4000026A64205D170BD55F8043B9847013672
:1007D400EEE755F8043B98470136F2E708080008AD
:1007E40008080008080800080C080008F8B500BF4D
:1007F400F8BC08BC9E467047F8B500BFF8BC08BCFE
:040804009E46704755
:04080800B90100082A
:04080C00950100084A
:0400000508000449A2
:00000001FF
